:100000000C9449000C946E000C946E000C946E00DD
:100010000C946E000C946E000C94B1050C946E0060
:100020000C946E000C946E000C946E000C946E0098
:100030000C946E000C946E000C94D5050C94830601
:100040000C946E000C946E000C946E000C946E0078
:100050000C9445050C946E000C946E000C946E008C
:100060000C9469050C94D5040C946E000C946E00ED
:100070000C946E000C94FD040C946E000C946E00B5
:100080000C946E000C946E000C948D050C9421055C
:100090002D0711241FBECFEFCDBFDFE3DEBF1CE372
:1000A000A0E0BCE3E4E6F6E102C005900D92A430C6
:1000B000B107D9F72EE3A4E0BCE301C01D92AB3039
:1000C000B207E1F710E0C9E4D0E003C02197FE01D8
:1000D00076DAC834D107D1F761D783CA91CF282FF8
:1000E00030E0F901E95CF94A90819F3F01F1245E1B
:1000F000394AF9018081E82FEE0FEE0FEE0FE90F7C
:10010000EF32A8F4F0E0EE0FFF1FE758F24C6083E7
:10011000718320E2829FF0011124FC5F7096E90F49
:10012000F11D8081887F8083808181608083089534
:10013000E091683CF091693C309741F01092633C4B
:100140001092623C09958091623C089580E0089588
:10015000E091663CF091673C309759F03091653CF6
:100160002091643C321728F01092653C8093643CE7
:1001700009940895CF93DF9390E0FC01EF5FF94A73
:1001800020812F3F61F0FC01E45EF94AE08130E21A
:10019000E39FF0011124FC5F613021F42183DF91A2
:1001A000CF910895895C994AEC01A881AF3F69F02D
:1001B000CF014096A80FB92FB11D9FB7F8942283A5
:1001C0008C91877F8C939FBFEACFB0E0A0E0F5CF02
:1001D00090E0FC01EA51FA4AE081EE2319F1E130A6
:1001E00021F000F1E630A8F00895895C994AFC01FD
:1001F0002081233008F02F5F3091010A81E090E0E8
:1002000001C0880F2A95EAF7809583238093010A1D
:10021000089580E1E89FF0011124E05AF54F8181B3
:100220008F7E818308950F931F93CF93DF93C82F01
:10023000D0E0FE01EF5FF94A00810F3F99F0162FE1
:100240008B3108F4C5DFFE01E45EF94AE08180E20B
:10025000E89FF0011124FC5F8081802351F011118F
:1002600006C00683DF91CF911F910F9108950583FA
:10027000F9CFC95CD94A8881309771F08F3F61F01E
:100280007096E80FF11D9FB7F8948081111107C097
:10029000877F80839FBFE6CFF0E0E0E0F4CF886007
:1002A000F8CF8B3108F4BFCF08950F931F93CF93EE
:1002B000082F10E0F801EF5FF94AC081CF3F81F0CD
:1002C0008B3108F485DFF801E45EF94AE08180E2D1
:1002D000E89FF0011124FC5F8085C82381E009F4C8
:1002E00080E0CF911F910F9108958B3108F4DDCFFD
:1002F00080E00895EF92FF920F931F93CF93DF93C7
:10030000E82EF12CF701E95CF94A00810F3FB1F1C9
:10031000EB01182F61E02EDF209749F460E0812F78
:10032000DF91CF911F910F91FF90EF90BACFCF3F08
:10033000D10514F061E0F3CFF701EA51FA4AE08108
:10034000E13039F010F0E63018F1C038D10594F7FB
:10035000E5CFE02FF0E0EE0FFF1F0330B0F0ED5DD2
:10036000F54F0F5FC0838091010A21E030E001C0AA
:10037000220F0A95EAF7822B8093010ADF91CF9131
:100380001F910F91FF90EF900895E85DF54FEACF30
:1003900080E1E89FF0011124E05AF54FC587818183
:1003A00080618183EBCF8FB7F89420910E3C309120
:1003B0000F3C4091103C5091113CE091AA0AF09101
:1003C000AB0A9091A60A90FF08C02F5F3F4F4F4F96
:1003D0005F4FE091AA0AF091AB0A8FBFA8EEB3E09D
:1003E000E4D824E0F695E7952A95E1F76E0F7F1F94
:1003F000811D911D08958F929F92AF92BF92CF92CF
:10040000DF92EF92FF924B015C01CDDF6B017C012B
:10041000A8EEB3E0A5019401C8D8C60ED71EE81E09
:10042000F91EC616D706E806F90610F4BCDFF9CFA8
:10043000BADF6C157D058E059F05D0F3FF90EF9018
:10044000DF90CF90BF90AF909F908F9008952FB77F
:10045000F89460910E3C70910F3C8091103C90910B
:10046000113C2FBF0895EF92FF920F931F93CF93EC
:10047000DF9390E2899FE0011124DC5FE984082F7B
:10048000000F000F000FFF24F39410E08E2D8F213A
:1004900079F0E02FE10FF0E0EE0FFF1FE758F24C8C
:1004A00080819181892B21F00190F081E02D0995C7
:1004B0001F5FFF0C183051F7E986DF91CF911F9134
:1004C0000F91FF90EF900895E0EAF8E09185906633
:1004D000918792E09093213C80931D3C10921E3CAA
:1004E000089581E080931E3C10921D3C93E0909310
:1004F000AA089091AB0891FF0DC010921F3CE091AB
:10050000193CF0911A3C099580930D3C85E080934D
:10051000213C08951092203C80931B3C86E0F7CF4D
:100520000895E091653C8091643CE81730F4F0E078
:10053000EE5DF34C808190E008958FEF9FEF08957A
:100540009091653C8091643C2FEF3FEF981748F401
:10055000E92FF0E0EE5DF34C208130E09F5F909357
:10056000653CC9010895CF93DF93EC0187ED9DE3CE
:10057000E7DF8093043C8091043C22974CF087EDA8
:100580009DE3DEDFE091043CF0E0E958F34C80832A
:100590008091043C8E3019F481E080936A3CDF91B5
:1005A000CF9108958091643C9091653C891B990B93
:1005B0000895CF92DF92EF92FF920F931F93CF9304
:1005C000DF937C018A01EB016B01C40ED51ECC15B3
:1005D000DD0551F06991D701ED91FC910190F08119
:1005E000E02DC7010995F3CFC801DF91CF911F918D
:1005F0000F91FF90EF90DF90CF9008952091623C93
:10060000203240F021E030E0FC012283338390E08F
:1006100080E008958091633CE82FF0E0EE5BF34CBE
:1006200060838F5F8093633C8093623C81E090E0C5
:100630000895E091043CF0E0E958F34C608187EDC7
:100640009DE3DCDF8091043C8C3031F4E091043C8C
:10065000F0E0E958F34C1082089590E080E00895AE
:10066000CF93DF93C091003CD091013C1C161D0636
:100670004CF48C2F3ADE61E0811160E08C2FDF9129
:10068000CF910FCEDF91CF910895FF920F931F93DB
:10069000CF93DF938091E33D28DE082F10E0809117
:1006A000E53D23DE2091ED3D3091EE3D021713072D
:1006B00089F0C82FD0E00093ED3D1093EE3D80917E
:1006C000EF3D9091F03D88379340E9F4C093EF3DC2
:1006D000D093F03D8091E93D9091EA3D8093823C3A
:1006E0002091EB3D3091EC3D1092EB3D1092EC3DB2
:1006F0008091833C820F8093833CDF91CF911F9147
:100700000F91FF90ADCF8091EF3D9091F03DC817D4
:10071000D90701F3FF24F3940C171D0709F4F12CFA
:100720008CE0C3DD61E0811160E08CE07CDD209134
:10073000FA3D8091013E9091023EF216A1F1209186
:10074000E93D3091EA3D280F391F4091EB3D509132
:10075000EC3D840F951F8093EB3D9093EC3D81E041
:1007600090E08093E73D9093E83D8091FB3D909130
:10077000FC3D4091FF3D442389F14091FD3D509166
:10078000FE3D8217930714F54093E93D5093EA3DEF
:100790008091003E81119ACF88E793E08093EF3DEE
:1007A0009093F03D97CF2091E93D3091EA3D281B91
:1007B000390B4091EB3D5091EC3D481B590B409358
:1007C000EB3D5093EC3D8FEF9FEFCBCF24173507D8
:1007D000A4F48093E93D9093EA3DDACF8217930722
:1007E0003CF08091FD3D9091FE3D281739072CF497
:1007F0001092E73D1092E83DCBCF2093E93D309336
:10080000EA3DC6CF0F931F93CF93DF938091F13DC5
:100810006CDDC1E0811101C0C0E0D091F33D809159
:10082000F43D882309F446C012DE0091F63D109194
:10083000F73D2091F83D3091F93D601B710B820B23
:10084000930B0091073E1091083E2091093E309194
:100850000A3E061717072807390718F481E0809326
:10086000F53DF5DD0091F63D1091F73D2091F83D05
:100870003091F93D601B710B820B930B0091033E8D
:100880001091043E2091053E3091063E0617170751
:1008900028073907E8F4CD131BC01092F43D1092DD
:1008A000F53D1092F63D1092F73D1092F83D1092F2
:1008B000F93D0EC0CD1789F381E08093F43DC7DD8B
:1008C0006093F63D7093F73D8093F83D9093F93D2A
:1008D0008091F53D811107C08091F43D882319F086
:1008E00081E080937F3C80917C3C813071F48091E9
:1008F000F53D811108C08091F43D882321F083E00B
:1009000080937D3C19C084E0FBCF8091F53D81113F
:1009100018C08091F43D8823A1F099DD6093733C69
:100920007093743C8093753C9093763C10927D3C20
:100930001092023C1092033CDF91CF911F910F91D6
:100940008FCE85DD0091733C1091743C2091753CF5
:100950003091763C601B710B820B930B603D7740AE
:100960008105910548F781E0CBCF90E080E0FC0164
:10097000F4612081FC01E958F34C208301968F3FFC
:100980009105A9F785E08093743D1092753D109212
:100990007D3C1092803C81E080937F3C1092733DBF
:1009A0001092853C80936A3C08951F920F920FB677
:1009B0000F9211248F939F93AF93BF9380910E3C1E
:1009C00090910F3CA091103CB091113C0196A11D5B
:1009D000B11D80930E3C90930F3CA093103CB093BC
:1009E000113C81E08093A60ABF91AF919F918F91B6
:1009F0000F900FBE0F901F9018951F920F920FB679
:100A00000F9211242F933F934F935F936F937F9394
:100A10008F939F93AF93BF93EF93FF9385E023DD75
:100A2000FF91EF91BF91AF919F918F917F916F91C6
:100A30005F914F913F912F910F900FBE0F901F909C
:100A400018951F920F920FB60F9211242F933F9378
:100A50004F935F936F937F938F939F93AF93BF93C6
:100A6000EF93FF9384E0FFDCFF91EF91BF91AF9193
:100A70009F918F917F916F915F914F913F912F91B6
:100A80000F900FBE0F901F9018951F920F920FB6E8
:100A90000F9211242F933F934F935F936F937F9304
:100AA0008F939F93AF93BF93EF93FF9383E0DBDC30
:100AB000FF91EF91BF91AF919F918F917F916F9136
:100AC0005F914F913F912F910F900FBE0F901F900C
:100AD00018951F920F920FB60F9211242F933F93E8
:100AE0004F935F936F937F938F939F93AF93BF9336
:100AF000EF93FF9382E0B7DCFF91EF91BF91AF914D
:100B00009F918F917F916F915F914F913F912F9125
:100B10000F900FBE0F901F9018951F920F920FB657
:100B20000F9211242F933F934F935F936F937F9373
:100B30008F939F93AF93BF93EF93FF9381E093DCE9
:100B4000FF91EF91BF91AF919F918F917F916F91A5
:100B50005F914F913F912F910F900FBE0F901F907B
:100B600018951F920F920FB60F9211242F933F9357
:100B70004F935F936F937F938F939F93AF93BF93A5
:100B8000EF93FF9380E06FDCFF91EF91BF91AF9106
:100B90009F918F917F916F915F914F913F912F9195
:100BA0000F900FBE0F901F9018951F920F920FB6C7
:100BB0000F9211242F933F934F935F936F937F93E3
:100BC0008F939F93AF93BF93CF93EF93FF93C09176
:100BD000AB08C2FF09C01092203C10921F3C10923B
:100BE0000D3C84E071DC13C0C6FF2DC080911B3C1E
:100BF000813051F48091203CE091153CF091163CFD
:100C000090E0099510921B3CC0FF13C06ADCFF9175
:100C1000EF91CF91BF91AF919F918F917F916F9104
:100C20005F914F913F912F910F900FBE0F901F90AA
:100C3000189580E48093AB0881E046DC8091AB0896
:100C400085FFE5CFE3CFC7FF5CC0C3FF08C01092AC
:100C5000203C10921F3C10920D3C83E0C3CF80914A
:100C6000A90880668093A9088091AB0881FF2CC0F9
:100C700080911F3C882349F08091AB0884FF05C018
:100C800082E08093AA0881E0ADCF90911F3C8091D3
:100C90000D3C9817A8F4E0911F3C8091173C90916F
:100CA000183CE80FF92FF11D80818093AD088091E9
:100CB0001F3C8F5F80931F3C83E08093AA08A7CFDF
:100CC00082E08093AA088ECF9091203C8091123CC4
:100CD000981790F48091AD08E091203C2091133C4E
:100CE0003091143CE20FF32FF11D80838091203C62
:100CF0008F5F8093203CE0CF86E08093AA0882E05B
:100D000071CF85E06FCF1F920F920FB60F92112413
:100D10002F938F939F93EF93FF938091A508982F24
:100D20009C70C1F08091A50894E082FF93E09093BD
:100D30000C3C8093A50881E08093213C10920B3CF1
:100D4000FF91EF919F918F912F910F900FBE0F9078
:100D50001F90189586FF46C02091073C9091093C52
:100D60008091A50884FF10C08091083C882351F031
:100D700083E08093A40885E080930C3C10920B3CA8
:100D800081E02BC081E0F5CF8091063C821760F4B2
:100D9000E091063CF0E080818093A8088091063CB9
:100DA0008F5F8093063CCCCF80910A3C891748F432
:100DB00084E08093213C8091053C81608093A7086A
:100DC000BFCF8091083C882359F083E08093A4082A
:100DD00081E080930C3C10920B3C8093213CB0CF7F
:100DE00081E0F4CF87FF37C090910A3C8091093CA5
:100DF0009817A8F48091A808E0910A3CF0E080835D
:100E000080910A3C8F5F80930A3C9091093C8091CD
:100E10000A3C8917C0F482E08093A40891CF8091A6
:100E2000083C882371F087E08093A40882E08093D7
:100E30000C3C10920B3C81E08093213C1092093CC9
:100E40007FCF85E0F1CF8091083C882311F087E0C7
:100E5000BDCF85E0BBCF86E08FCF1092D93D1092F9
:100E6000DA3D88EE93E0A0E0B0E08093DB3D909324
:100E7000DC3DA093DD3DB093DE3D86E596E58093B5
:100E8000D73D9093D83D1092E73D1092E83D1092E7
:100E9000E93D1092EA3D1092EB3D1092EC3D88E75F
:100EA00093E08093ED3D9093EE3D8093EF3D9093E2
:100EB000F03D1092F33D1092F43D1092F53D1092EA
:100EC000F63D1092F73D1092F83D1092F93D81E009
:100ED0008093FA3D8AE090E08093FB3D9093FC3D47
:100EE00026EF3FEF2093FD3D3093FE3D1092FF3DF6
:100EF0001092003E21E030E02093013E3093023E0C
:100F000044E650E060E070E04093033E5093043EBE
:100F10006093053E7093063E4CEB52E060E070E05B
:100F20004093073E5093083E6093093E70930A3EFB
:100F300028E030E02093E33D3093E43D29E030E0C9
:100F40002093E53D3093E63D8093F13D9093F23D53
:100F500060E088E00FD98091E53D8B3110F460E0CE
:100F600009D98091F13D8B3110F460E003D9809173
:100F7000F33D91E089278093F33D8091E33DB5D91E
:100F800090E08093ED3D9093EE3D8091E53DADD9AD
:100F900090E08093EF3D9093F03D089588ED90E0D0
:100FA00084BF909361008091020686608093020660
:100FB00080910006816080930006809102068F7CFC
:100FC0008065809302061092E20583E08093E40539
:100FD000C1E0C093030A9EEF9093270A9093260ADC
:100FE00080E880932D0A80932B0A8093290A8093AE
:100FF0002C0A80932A0A8093280A2BE02093000A67
:101000001092E50537E03093810A90938C0A809323
:101010008D0A25E02093800A3093910A90939C0AD0
:1010200080939D0A2093900A3093A10A9093AC0A72
:101030008093AD0A2093A00A1092A10A8FE79EE345
:101040008093AC0A9093AD0A8091A50A8160809349
:10105000A50A1092A00A8091A00A81608093A00A3C
:101060007894C0937F3C61E080E084D860E080E0C9
:10107000DAD861E08CE07ED861E08DE07BD861E079
:101080008EE078D861E08EE0CED861E08DE0CBD8FC
:1010900061E08CE0C8D860E08EE0C5D868EC70E014
:1010A00080E090E0A8D961E08EE0BDD860E08DE0FE
:1010B000BAD868EC70E080E090E09DD961E08DE006
:1010C000B2D860E08CE0AFD868EC70E080E090E0EF
:1010D00092D961E08CE0A7D881E090E88093FD3D53
:1010E0009093FE3D80E090E88093FB3D9093FC3D23
:1010F000C093FF3D65E473E088E0F1D765E473E0F9
:1011000089E0EDD762E074E08AE0E9D71092653CAF
:101110001092643C1092633C1092623C8091213C9E
:10112000811119C082E08093213C1092203C1092E2
:101130001F3C10921E3C10921D3C10921C3C1092C1
:101140001B3C8EEE8093AC081092AE0881EE80932B
:10115000A908C093A30888E990E08093193C909374
:101160001A3C82E49CE38093173C9093183C88EAF5
:1011700090E08093153C9093163C82E29CE3809330
:10118000133C9093143C80E28093123C83EB92E0FA
:101190008093663C9093673C89E193E08093683C40
:1011A0009093693CE2DBC8EED3E06FE7262E312C4A
:1011B00044244A94542CE5E16E2E712C04E110E095
:1011C000CC24C394D12C50E0E52E50E0F52E809134
:1011D000F53D32E0A32EB12C811103C0A090F43D67
:1011E000B12C8091773D9091783D8A159B0509F44B
:1011F00009C1A092773DB092783D80917F3C61E03B
:10120000882309F49FC180E00ED88091783C811139
:101210004DC12092713C3092723C8091793CA090FB
:10122000713CB090723C8A9DB0018B9D700D112471
:1012300077FF02C061587F4F660F672F661F770BDD
:1012400071956195710961507F4F8EE053D88091FF
:101250007A3C8A9DB0018B9D700D112477FF02C0EE
:1012600061587F4F660F672F661F770B71956195E9
:10127000710961507F4F8DE03DD880917B3C8A9D04
:10128000B0018B9D700D112477FF02C061587F4F14
:10129000660F672F661F770B719561957109615015
:1012A0007F4F8CE027D88091803C882309F45BC174
:1012B00080916D3C90916E3CA0916F3CB091703CE0
:1012C000892B8A2B8B2BD1F4C2D8AB01BC01209186
:1012D000803C2C9FC0012D9F900D1124092E000CE5
:1012E000AA0BBB0B840F951FA61FB71F80936D3CE5
:1012F00090936E3CA0936F3CB093703C80906D3C9B
:1013000090906E3CA0906F3CB090703C8114910422
:10131000A104B104C9F09BD886169706A806B906A1
:1013200098F410926D3C10926E3C10926F3C1092AB
:10133000703C10926B3C10926C3C10927F3C10926F
:10134000803C34E630937A3C8091723D8823D9F01A
:1013500090E080E0FC01E958F34C2081FC01F4614D
:1013600020832FB7F8944DE933E044BF3093001049
:101370002FBF2091021021FDFCCF01968F3F9105D8
:1013800049F71092723D80916A3C882349F140925E
:10139000003C5092013C8091853C843010F01092CA
:1013A000853C60E081E0E6D660E084E1E3D660E081
:1013B00085E1E0D660E081E036D760E084E133D7B4
:1013C00060E085E130D78091853C813009F0D4C060
:1013D00061E0D0D6C092003CD092013C10926A3CB1
:1013E0008091733D882319F0C0DA1092783C64E153
:1013F00070E080E090E0FFD7E114F10409F4E7CE5B
:10140000FFD5DECE21E0A216B10409F0F6CE809120
:101410007C3C811120C08091023C9091033C892B3F
:10142000D1F415D82091733C3091743C4091753CB7
:101430005091763C621B730B840B950B613D77409A
:101440008105910540F042E040937D3CA092023C32
:10145000B092033C05D98091813C882309F4CDCE1C
:101460008091813C8C9F40018D9F900C1124092C10
:10147000000CAA08BB088091733C9091743CA09129
:10148000753CB091763C880E991EAA1EBB1EDFD714
:1014900086169706A806B90608F0AFCE10927F3CD4
:1014A0001092803C84E680937A3CA7CE8091783C71
:1014B0008130B9F480916B3C90916C3C01968093A3
:1014C0006B3C90936C3C9927803891052CF02FEF62
:1014D00030E0281B390BC9018093713C9093723C1A
:1014E0009CCE8091783C823081F480916B3C9091CD
:1014F0006C3C019680936B3C90936C3C99278038B0
:1015000091059CF48FE790E0E7CF8091783C8330A1
:1015100079F480916B3C90916C3C019680936B3C8C
:1015200090936C3C992702976CF390E080E0D4CFC5
:101530008091783C843009F070CE1092713C10920A
:10154000723C6BCE8EE06FD661E08DE06CD661E0D0
:101550008CE069D660E080E066D664E670E080E00A
:1015600090E049D7A0CE10926D3C10926E3C109244
:101570006F3C1092703CC2CE8091853C823041F429
:1015800061E084E1F7D50093003C1093013C26CF45
:101590008091853C833009F021CF61E085E1EAD577
:1015A0006092003C7092013C19CF0FD0A59F900D26
:1015B000B49F900DA49F800D911D11240895EE0FEE
:1015C000FF1F0590F491E02D0994A29FB001B39FF5
:1015D000C001A39F01D0B29F700D811D1124911DE8
:0615E0000895F894FFCF0E
:1015E60000000203000000000000000001010101EC
:1015F60001010000000000000000000102040810C4
:1016060020408001020408010204081020408001E5
:101616000204081020400000000000000000020242
:10162600020203030303030303030505050505057A
:10163600050001020304050607000102030001027A
:101646000304050607000102030405060000000066
:0E165600FE02D9022D039002D202A0029102E0
:04166400FFFF010083
:00000001FF
